:020000040800F2
:10000000204D0020010100082B2E0008512500087A
:10001000292E000891040008053C0008000000009B
:10002000000000000000000000000000F3310008A4
:10003000F304000800000000DD2F0008F53100087F
:100040001B0100081B0100081B0100081B01000820
:100050001B0100081B0100081B0100081B01000810
:100060001B0100081B0100081B0100081B01000800
:100070001B0100081B0100081B0100081B010008F0
:1000800095040008BD0400081B0100081B010008BE
:100090001B0100081B0100081B010008F5040008F3
:1000A0001B0100081B0100081B0100081B010008C0
:1000B0001B0100081B010008CD3200081B010008CD
:1000C0001B0100081B0100081B0100081B010008A0
:1000D0001B010008F93B00081B0100081B01000878
:1000E0001B0100081B0100081B010008DFF80CD0F1
:1000F00000F082F9004800478D440008204D0020A0
:100100000648804706480047FEE7FEE7FEE7FEE7B1
:10011000FEE7FEE7FEE7FEE7FEE7FEE785320008C2
:10012000ED000008202A04DB203A21FA02F0002129
:10013000704721FA02F3D040C2F1200291400843F7
:10014000194670470649074A0868504343F2390286
:10015000104408604008704701490860704700007B
:10016000C00400206D4EC641D2B201E000F8012B60
:10017000491EFBD270470022F6E710B513460A4627
:1001800004461946FFF7F0FF204610BD2DE9FE4F4B
:1001900081EA030404F0004421F0004100944FF090
:1001A000000B23F0004350EA01045ED052EA03043E
:1001B0005BD0C3F30A54C1F30A552C44A4F2F334C0
:1001C0000194A0FB0254C1F3130141F48011C3F365
:1001D000130343F4801301FB024400FB034E840A23
:1001E000970A44EA815447EA8357A4FB07680295BB
:1001F0008D0A05FB07854FEA932C04FB0C54270559
:10020000029D4FEA065847EA1637B5EB08056EEB34
:10021000070C870E920E47EA811742EA8312A7FB6A
:100220000201B6EB0B0164EB00042B0D43EA0C3327
:100230005E1844EB1C50DA465146E7FB0201C5F359
:1002400013044FEA0B3343EA14534FEA0432019C80
:1002500043EA0603A4F10C040294009CCDE900B427
:1002600000F07BF803B0BDE8F08F00200146F9E70D
:100270000EB540F2334102910021CDE900110A464A
:100280000B4600F06AF803B000BD000030B5041E54
:1002900071F1000404DB4FF00044404264EB0101C3
:1002A000141E73F1000405DB1C464FF0004352425C
:1002B00063EB04038B4208BF824230BD30B5041E9D
:1002C00071F1000404DB4FF00044404264EB010193
:1002D000141E73F1000405DB1C464FF0004352422C
:1002E00063EB0403994208BF904230BD30B50B4622
:1002F000014600202022012409E021FA02F59D4256
:1003000005D303FA02F5491B04FA02F52844151E29
:10031000A2F10102F1DC30BD40EA01039B0703D0EA
:1003200009E008C9121F08C0042AFAD203E011F834
:10033000013B00F8013B521EF9D2704710B5141E64
:1003400073F1000408DA401C41F1000192185B418E
:100350001A4301D120F0010010BD2DE9F04D924665
:100360009B4611B1B1FA81F202E0B0FA80F220327C
:10037000904600F053F804460F4640EA0A0041EA6E
:100380000B0153465A46084313D0114653EA010065
:1003900019D0C8F140025046FFF7C4FE05460E468C
:1003A00050465946424600F039F8084305D001202E
:1003B00004E020463946BDE8F08D0020054346EABA
:1003C000E0762C4337430A986305E40AA0EB080063
:1003D0000022FD0A44EA47540A3002D500200146B3
:1003E000E9E7010510196941DDE90845001969418E
:1003F000BDE8F04DA2E70000064C074D06E0E068BE
:1004000040F0010394E8070098471034AC42F6D35B
:10041000FFF770FE8C530008AC530008202A04DB61
:10042000203A00FA02F1002070479140C2F1200307
:1004300020FA03F319439040704770B58C1810F8F8
:10044000015B15F0070301D110F8013B2A1106D119
:1004500010F8012B03E010F8016B01F8016B5B1E33
:10046000F9D12B0705D40023521E0DD401F8013B0E
:10047000FAE710F8013BCB1A921C03E013F8015B7A
:1004800001F8015B521EF9D5A142D8D3002070BDFE
:10049000FEE7000010B5064800F0B4F80548016812
:1004A00041F4007101600449202081F83D0010BD35
:1004B0007405002000540040CC040020014800F0E6
:1004C000A1B800004C06002030B590F8405001243F
:1004D000AC40C56B6C60046863604368102B0368B4
:1004E00003D099600068C26030BD9A600068C16046
:1004F00030BD704770B51B4C1B4DA07830B9402102
:10050000284600F091FA30B10020A0702078617880
:10051000084302D00FE00120F7E78021284600F0D1
:1005200083FAD0B1002020702021284600F07CFA08
:10053000A8B10020607020786178084202D00020C5
:1005400020706070202000F085F9402000F082F9D2
:10055000BDE87040802000F07DB90120E3E7012074
:10056000E8E70000030000200008014010B590F803
:1005700021100024022903D00421816301243DE0DD
:1005800001680A6822F00E020A6001680A6822F017
:1005900001020A601A4A0168914201D1012121E059
:1005A000174A1432914201D110211BE0144A28321B
:1005B000914201D1891515E0114A3C32914201D195
:1005C00089140FE00E4A5032914202D14FF480312B
:1005D00008E00B4A6432914202D14FF4801101E0ED
:1005E0004FF08071064A083A5160012180F82110CD
:1005F000002180F82010416B01B18847204610BDD2
:10060000080002402DE9F05FC16B0C6801680B68BF
:10061000D0F840C0042202FA0CF2494DDFF824A1C0
:10062000494E4A4FDFF828B1DFF828E122422CD0AA
:100630005A072AD50A68920603D40A6822F00402EF
:100640000A600168A94201D1042219E0514501D193
:10065000402215E0B14202D14FF4806210E0B9426D
:1006600002D14FF480420BE0594502D14FF4802271
:1006700006E0714502D14FF4800201E04FF0806244
:100680002F4908394A60C16A3BE04FF0020808FA76
:100690000CF818EA040F4FF000094FF0010235D0B2
:1006A0005FEA837832D50B689B0605D40B6823F08C
:1006B0000A030B6080F821200168A94201D10222BF
:1006C00019E0514501D1202215E0B14202D14FF489
:1006D000007210E0B94202D14FF400520BE05945CC
:1006E00002D14FF4003206E0714502D14FF40012FE
:1006F00001E04FF00072124908394A6080F82090FA
:10070000816A00291AD0BDE8F05F0847082505FA7C
:100710000CF5254212D01B0710D50B6823F00E03F1
:100720000B6090F84010C36B02FA01F159608263CC
:1007300080F8212080F82090016BE2E7BDE8F09F6F
:10074000080002401C000240300002404400024009
:10075000580002406C00024030B548B308C8154943
:1007600014221944B1FBF2F18900C163124981637B
:10077000022141771A6843F6F0718A43D0E90014E8
:100780002143D0E902452C432143046921434469B4
:100790002143846921431143196000214162816230
:1007A000C16201634163012242770177084630BD8F
:1007B000012030BDF8FFFDBF0000024070B50446C7
:1007C00090F82000002501280CD0012084F820009A
:1007D00094F821600020012E06D084F82000022524
:1007E000284670BD022070BD022684F82160A063F7
:1007F0002068066826F0010606602046FFF764FEC2
:10080000E06A00282068016802D041F00E0106E08D
:1008100021F0040101602068016841F00A010160D3
:100820002068016841F001010160D9E770B5044614
:1008300000F008F90546601C02D004480078044422
:1008400000F000F9401BA042FAD370BDB0040020B4
:1008500070470000044910B50A68024202D00860DF
:10086000FFF7F6FF10BD0000140401402DE9F84F1A
:10087000DFF890A100220AF1040B144601274FF083
:100880000F090BF1040E00BF0B6807FA04F52B40AB
:10089000AB4274D1DFF870C14E68A6EB0C08664518
:1008A0002BD00DDC032E34D005DC36B3012E19D04D
:1008B000022E2FD11BE0112E16D0122E2AD119E0B4
:1008C000B8F5881F19D006DCB8F5803F15D0B8F50B
:1008D000801F1FD111E0B8F5001F0ED0B8F5041F1E
:1008E00018D10AE0CA6815E0CA68121D12E0CA6889
:1008F00008320FE0CA680C320CE08A682AB1012A7B
:100900004FF0080203D0456104E0042202E00561D3
:1009100000E00022FF2B01D8064601E000F10406AA
:100920004FEA840501D9A5F12005D6F800C009FADF
:1009300005F82CEA080C02FA05F54CEA050CC6F895
:1009400000C04D68ED0057D5304DAE6946F0010648
:10095000AE61AD6924F0030605F0010500952C4D4C
:1009600006EB050CDCF80850A6074FEA167809FAE2
:1009700008F6B543274EB04202D1002610E03BE016
:10098000254EB04201D101260AE0244EB04201D1E9
:10099000022605E0224EB04201D1032600E00426E3
:1009A00006FA08F62E43CCF808604D68DAF80060C5
:1009B000ED03554601D51E4300E09E432E604D6871
:1009C000DBF80060AD035D4601D51E4300E09E43A9
:1009D0002E604D68DEF80060ED02754601D51E43BD
:1009E00000E09E432E604D68AD020E4D2E6801D58D
:1009F0001E4300E09E432E60641C102CFFF444AFA5
:100A0000BDE8F88F00040140000011100010024002
:100A10000000014000080140000C014000100140AE
:100A2000001401400C0401408068084000D00120FF
:100A30007047C2684A40C26070470AB1016170479E
:100A40000904FBE70148806870470000B0040020FB
:100A5000704790F83D00704770B504001BD094F8C3
:100A60003D00002520B984F83C50204600F068FB8A
:100A7000242084F83D002068016821F00101016014
:100A800000F00CFE404A6168914201D83F4900E005
:100A90003F49884201D2012070BD3E492368B0FB26
:100AA000F1F159606368934206D94FF49673594344
:100AB0004FF47A73B1FBF3F12368491C1962616842
:100AC000914210D84900401EB0FBF1F2521CC2F313
:100AD0000B02042A01D2042022E0B0FBF1F0401CFA
:100AE000C0F30B001CE0A368CBB301EBC10202EB27
:100AF0000116421EB2FBF6F2521C42F4804212056D
:100B000036D06BB301EBC10202EB0111401EB0FB0A
:100B1000F1F0401CC0F30B0040F4804040F4004072
:100B20002168C861D4E90701084321680860D4E955
:100B30000310084321688860D4E90501084321684F
:100B4000C8602068016841F001010160256420202F
:100B500084F83D00256384F83E50002070BD00E01D
:100B600008E001EB4106421EB2FBF6F2521CC6E75A
:100B70000120D5E701EB4101401EB0FBF1F0401C24
:100B8000C0F30B00CAE70000A086010080841E00AD
:100B900000093D0040420F00704700002DE9F84F6A
:100BA0001F4690468A460446DDF82890FFF74AFF24
:100BB000054694F83D0020287ED11923012278496A
:100BC0002046009501F061FE0028F5D194F83C0024
:100BD000012871D0012084F83C0020680168C90711
:100BE00003D1016841F0010101602068016821F42E
:100BF00000610160222084F83D00102084F83E004E
:100C000000262664C4F8248067856648E062608D0B
:100C100020852B464A465146204601F006FD28B164
:100C2000206C84F83C60042850D073E0208D5E4F27
:100C300068B1012814D00228206801681ED041F450
:100C40008061016020684169806900909AE02068B5
:100C5000416981690091016841F40071016091E08E
:100C60002068016821F48061016072B620684169E2
:100C700081690091016841F400710AE041F400616A
:100C8000016072B62068416981690091016821F4B0
:100C90008061016062B675E0032850D801280CD04D
:100CA00002284B464FF0000239462046009512D0EC
:100CB00001F0EBFD70BB13E070E02A464946204688
:100CC00001F058FE28B1206C202823D00120BDE877
:100CD000F88F20684BE001F0D8FDD8B972B61BE060
:100CE0002068016821F48061016072B620680169A2
:100CF000606A421C62620170208D401E2085608DFA
:100D0000401E60854B46002239462046009501F082
:100D1000BCFD08B10320DAE72068016841F40071E6
:100D2000016020680169606A421C62620170208D66
:100D3000401E2085608D401E608562B6C9E72A4648
:100D40004946204601F016FE0028BCD12068016902
:100D5000606A421C62620170208D401E2085608D99
:100D6000401E608520684169C94349070AD401696A
:100D7000606A421C62620170208D401E2085608D79
:100D8000401E6085208D002886D1202084F83D00FB
:100D900084F83E6084F83C60002098E7022096E7E3
:100DA000020010000000FFFF040001002DE9F84FD1
:100DB0001F4690468A460446DDF82890FFF742FE1B
:100DC000064694F83D0020287ED11923012243498C
:100DD0002046009601F059FD00287DD194F83C0092
:100DE000012879D0012084F83C0020680168C907F7
:100DF00003D1016841F0010101602068016821F41C
:100E000000610160212084F83D00102084F83E003C
:100E100000252564C4F8248067853148E062608D30
:100E2000208533464A465146204601F06DFC28B1E4
:100E3000206C84F83C5004284CD00DE020684169B7
:100E40008069009030E032464946204601F0C3FDFB
:100E500028B1206C042838D00320BDE8F88F606AE0
:100E6000411C6162216800780861608D401E6085C8
:100E7000208D401E80B2208521684A69D2435207E6
:100E80000BD450B1606A421C626200780861608DC8
:100E9000401E6085208D401E2085324649462046F2
:100EA00001F0CCFC0028D4D1208D0028CBD154F8FF
:100EB0003D0B016841F400710160202004F81E0917
:100EC000E57765770020C8E706E02068016841F40F
:100ED000007101600120C0E70220BEE7020010009F
:100EE0000000FFFF704700002DE9FF4F83B09A46D6
:100EF000DDE9118793460446DDF84090FFF7A2FD37
:100F0000064694F83D0020287DD11923012243494B
:100F10002046009601F0B9FC00287CD194F83C00F2
:100F2000012878D0012084F83C0020680168C907B6
:100F300003D1016841F0010101602068016821F4DA
:100F400000610160212084F83D00402084F83E00CB
:100F500000252564C4F82490A4F82A803048E06273
:100F6000608D2085CDE9007653465A462046049987
:100F700001F014FC80B3206C84F83C50042848D065
:100F800008E032463946204601F025FD30B1206C9C
:100F9000042839D0032007B0BDE8F08F606A411CF7
:100FA0006162216800780861208D401E80B2208532
:100FB000618D491E618521684A69D24352070BD46D
:100FC00068B1606A421C626200780861208D401E30
:100FD0002085608D401E6085208D0028D1D132464D
:100FE0003946204601F02AFC0028D0D154F83D0BA8
:100FF000016841F400710160202004F81E09E577C2
:1010000065770020C7E706E02068016841F40071B9
:1010100001600120BFE70220BDE7000002001000D0
:101020000000FFFF2DE9FC5F0025DDE90C869946F5
:1010300092468B4604460095FFF704FD074694F858
:101040003D00202872D13A4846F2A8110068B0FB52
:10105000F1F000EBC00101EB00100090411E009187
:1010600007D244F8305F2020607325730320BDE869
:10107000FC9F20688069C043800701D40846EDE7E3
:1010800094F83C00012851D0012084F83C002068ED
:101090000168C90703D1016841F0010101602068BE
:1010A000016821F400610160212084F83D004020A6
:1010B00084F83E002564C4F82480268566851D4892
:1010C000E06286B3616B1C488862616B1B480863F1
:1010D000606BC562606B45632268238D1032616A64
:1010E000606BFFF76BFB2320CDE900074B465246B0
:1010F0005946204601F052FB30B1206C84F83C5038
:101100000428B3D10120B2E72068416981690091C8
:1011100084F83C50416841F4807141602068416826
:1011200041F4006141600020A1E7FFE702209EE753
:10113000BC0400200000FFFF7D25000853250008A7
:1011400070B50546234E016812200322224B234C22
:1011500086B0B14228D1C021CDE900100392694682
:101160001846FFF783FBE06940F40010E061E06996
:101170001C4C00F40010049019482060102000213D
:10118000C4E901018020C4E903016161A161204635
:10119000E161FFF7E1FA18B17F2113A002F033FDFE
:1011A0006C63656206B070BD134DA942FAD14FF46D
:1011B0004061CDE90010039269461846FFF756FBDF
:1011C000E06940F48000E061E06900F48000049090
:1011D000E8E7000000540040000C0140001002400D
:1011E0006C000240740500202E2E2F5372632F696D
:1011F00032632E63000000000058004002488168FE
:101200000278114481607047B0040020074810B58F
:10121000016841F010010160032000F09DF80020FA
:1012200000F006F800F024F8002010BD0020024075
:1012300070B50D4D04464FF47A712878B1FBF0F08B
:101240000A490968B1FBF0F000F0E0FD48B9102C44
:1012500007D200222146501E00F05EF800206C608C
:1012600070BD012070BD0000B0040020BC0400204F
:10127000214808B5816941F001018161816901F06E
:1012800001010091C16941F08051C161C06900F064
:1012900080500090032000F05FF8002211466FF0AC
:1012A0000B0000F039F8002211466FF00A0000F040
:1012B00033F8002211466FF0090000F02DF80022EB
:1012C0001146501F00F028F800221146101F00F0B0
:1012D00023F800221146901E00F01EF8002211464D
:1012E000501E00F019F80548416821F0E06141F016
:1012F0000071416008BD0000001002400000014084
:1013000000F01F02012191404009800000F1E0201F
:10131000C0F8001170470000F0B40E4B1B680C467B
:10132000C3F30223C3F10705042D00D90425191DB9
:10133000072901D2002300E0DB1E012606FA05F191
:10134000491E214099409E40761E16403143F0BC14
:1013500001F06CBD0CED00E0064900F007020868E2
:101360004FF6FF03184040EA0220034A104308608A
:10137000704700000CED00E00000FA050149012073
:101380000862704700000E4210B529A401461DCC2A
:1013900086B08DE81D002AA02A4C00680490002029
:1013A000012923D002293AD010291DD16168226871
:1013B000D20119D5C1F38342C9031DF8020009D532
:1013C000616804AAC1F34041515C1F4AB2FBF1F1CC
:1013D000484301E01D4948436168490204D4400084
:1013E0005FF00301B0FBF1F006B010BD226AC2F35A
:1013F0000121012903D1920701D5C803F4E702298D
:1014000005D1626A920702D549F64040ECE703290C
:10141000EAD121688903E7D54FF22440E4E700F0E0
:101420004DF96168C1F38131491C4900DAE70000D8
:1014300002030405060708090A0B0C0D0E0F101015
:10144000010200000010024000127A0000093D0075
:101450002DE9F84305460078354CC00754D0E069C3
:101460000026C00008D4E06940F08050E061E069E7
:10147000012600F0805000902E480168C90512D462
:101480000168804641F480710160FFF7DBFA07468E
:1014900005E000BFFFF7D6FAC01B642823D8D8F8B0
:1014A0000000C005F6D5206A10F4407021D0A9884C
:1014B00001F4407181421CD0206A1F49012220F4AE
:1014C00040700A6000220A602062C00711D0FFF756
:1014D000B9FA074641F2883808E000BFFFF7B2FAD0
:1014E000C11B414502D90320BDE8F883206A80076B
:1014F000F4D5206A696820F44070084320621EB168
:10150000E06920F08050E0612878800705D56068A8
:10151000A96820F44040084360602878C00605D5DB
:101520006068E96820F48000084360600020DBE721
:101530000010024000700040400442422DE9F04794
:10154000DFF83C8105460E46D8F8000000F00700A1
:10155000B0420CD2D8F8001021F007013143C8F88E
:101560000010D8F8000000F00700B04263D12878DE
:10157000444C800705D56068A96820F0F000084356
:1015800060602878C00745D06868012816D02168B7
:10159000022816D0890700294DDA616821F003017D
:1015A00001436160FFF74EFA6968074641F28830EF
:1015B00001290FD00229814619D027E0216889032B
:1015C000E9E78901E7E700BFFFF73CFAC11B49459E
:1015D00001D918E081466068C0F381000128F3D189
:1015E00018E000BFFFF72EFAC11B49450BD8606811
:1015F000C0F381000228F5D10CE000BFFFF722FA0A
:10160000C11B494502D90320BDE8F087606810F08E
:101610000C0FF3D1D8F80010404601F00701B14299
:101620000BD9016821F0070131430160006800F027
:101630000700B04201D00120E6E72878400705D531
:101640006068E96820F4E06008436060287800077B
:1016500006D56068296920F4605040EAC1006060E6
:1016600000F03CF86168084AC1F30311515CC840BE
:10167000064908600020FFF7DBFD0020C4E70000FA
:10168000002002400010024074530008BC040020F7
:101690000148006870470000BC0400200448054968
:1016A00000684968044AC1F30221515CC840704790
:1016B000BC0400200010024084530008044805497F
:1016C00000684968044AC1F3C221515CC8407047B0
:1016D000BC040020001002408453000812A185B011
:1016E0000FC98DE80F0014A0144A006804905168D7
:1016F000134801F00C03042B10D0082B0ED1C1F3BA
:101700008343C9031DF803000AD5516804AAC1F335
:101710004041515C0A4A5043B0FBF1F005B07047BC
:1017200008494843FAE700000203040506070809D0
:101730000A0B0C0D0E0F10100102000000100240E9
:1017400000127A0000093D002DE9F84F04460078A8
:10175000B94DC00748D06868C0F38100012807D0A0
:101760006868C0F38100022809D16868C00306D503
:101770002868800338D5606800286FD034E060683E
:10178000B0F5803F0BD010B1B0F5A02F11D0286874
:1017900020F480302860286820F4802002E0286847
:1017A00040F480302860606888B1FFF74BF9064646
:1017B00009E0286840F480202860F0E7FFF742F94C
:1017C000801B642875D828688003F7D50CE0FFF7E4
:1017D00039F9064605E000BFFFF734F9801B64289D
:1017E000F0D828688003F7D42078944E80074FF013
:1017F00001094FF000083BD5686810F00C0F07D0C6
:101800006868C0F38100022809D16868C00306D463
:101810002868800714D5206901281FD110E02069AD
:10182000B0B1C6F80090FFF70DF9074605E000BF1C
:10183000FFF708F9C01B0228C4D828688007F7D52D
:101840002868616920F0F80040EAC10028600FE0D4
:10185000C6F80080FFF7F6F8074606E0E9E000BFAB
:10186000FFF7F0F8C01B022823D828688007F7D4B8
:10187000207800072CD57248A169D9B1C0F8009032
:10188000FFF7E0F8074604E0FFF7DCF8C01B02288A
:101890000FD8686A8007F7D56A484FF4FA51006894
:1018A000B0FBF1F0009000BF0098411E0091FAD209
:1018B0000EE080E0C0F80080FFF7C4F8074604E0BF
:1018C000FFF7C0F8C01B022875D8686A8007F7D4F4
:1018D0002078400760D5E8690027C00008D4E8698F
:1018E00040F08050E861E869012700F080500090E6
:1018F00055480168C90513D40168834641F48071D5
:101900000160FFF79FF8824606E000BFFFF79AF8F4
:10191000A0EB0A0064284ED8DBF80000C005F5D51E
:10192000E06801280AD008B1052813D0286A20F001
:1019300001002862286A20F0040002E0286A40F0D2
:1019400001002862E06841F2883B98B1FFF77AF81D
:1019500082460BE0286A40F004002862EEE700BFF0
:10196000FFF770F8A0EB0A0159455AD8286A80079A
:10197000F6D50CE0FFF766F8824605E0FFF762F85F
:10198000A0EB0A0159454CD8286A8007F6D41FB14C
:10199000E86920F08050E861E06988B36968C1F3C4
:1019A0008101022945D00228C6F8608004D0FFF7E3
:1019B00049F8044638E034E0FFF744F8074604E00D
:1019C000FFF740F8C01B02282BD828688001F7D405
:1019D000206AB0F5803F05D16868A16820F4003026
:1019E00008436860D4E908010843696821F4741168
:1019F00008436860C6F86090FFF724F8044606E0E4
:101A000015E000BFFFF71EF8001B022809D8286860
:101A10008001F7D50BE000BFFFF714F8001B022888
:101A200002D90320BDE8F88F28688001F4D4002093
:101A3000F8E70120F6E700000010024000004242F3
:101A400080044242BC04002000700040F8B505004C
:101A50004FF0000016460C46009006D02CB1002234
:101A60006946284600F019F808B10120F8BD287B26
:101A70002070E87BE070697B6170A97BA17056B132
:101A800001F0B6FAE070607801F0B2FA6070A07808
:101A900001F0AEFAA0700020F8BD2DE9F0479146A4
:101AA0000C465FEA00084AD084B3D8F800004068CA
:101AB000400744D4404601F039FB4FF461620546CB
:101AC000B0FBF2F1B0FBF2F302FB13503C23B0FB8E
:101AD000F3F0B5FBF2F6607002FB1650B0FBF3F2C8
:101AE00003FB1200A070182931D31820B1FBF0F7C6
:101AF000B1FBF0F200FB12102070404601F00FFB2A
:101B0000411C04D0A84202D9461B02E017E04FF066
:101B1000FF36A7EB071000EB4000C0EB001005EB11
:101B2000C0152946404601F050FB40B9701C01D059
:101B3000711900E03146404601F033FB10B101203D
:101B4000BDE8F0873946404601F05DFA00E02170BB
:101B5000B9F1000F0BD0207801F04AFA20706078BC
:101B600001F046FA6070A07801F042FAA0700020FF
:101B7000E6E7000070B5040003D0607C002610B1D9
:101B800005E0012070BD2674204600F043F80220D5
:101B90006074204600F010F9042578BB204601F05F
:101BA00089FA58BB2068416821F007014160A068AC
:101BB00020B11748016821F0010101601448001F9D
:101BC0000168A26821F46071114301606068411CE2
:101BD00004D10120FFF7D8FB80B1401E21688A683C
:101BE00022F00F0242EA10428A602168CA6860F35C
:101BF0000F02CA60204601F077FA08B16574C0E7A9
:101C0000E67301206073A0736074002070BD000053
:101C1000306C004008B50068084988420DD1FFF7D4
:101C2000ADFB0748C16941F00061C161C069054968
:101C300000F0006000900120086008BD002800400E
:101C4000001002403C0442422DE9F0410D460400E0
:101C50003BD0C5B3207C01283AD04FF0010884F86E
:101C6000108002206074E87872B301F0B8F9E07374
:101C7000687801F0B4F96073A87801F0B0F9A07346
:101C8000C2B2617BE07B01F061FA207328702046CC
:101C900001F04CFA4FF46161B0FBF1F10025182915
:101CA0002DD91822B1FBF2F1A1EB011101EB410199
:101CB000C1EB011100EBC1163146204601F085FA57
:101CC0000427C8B90BE000E004E00120BDE8F08182
:101CD0000220FBE7E07368786073A878CFE72046BE
:101CE00001F01DFA411C0AD0B04208D20649014455
:101CF000204601F056FA10B167742574E5E784F8C0
:101D0000118025740020E1E7805101002DE9F041A8
:101D10000D46040024D01DB3207C012823D04FF0B1
:101D2000010884F81080022060742878EAB101F07C
:101D300056F94FF4616100FB01F6687801F04FF944
:101D4000C0EB001006EB8006A87801F048F93518C2
:101D50002946204601F039FA0026042710BB0FE07F
:101D60000120BDE8F0810220FBE74FF461614843A8
:101D70006978C1EB011100EB8100A9784518E7E70C
:101D80002068416821F005014160204601F0C7F953
:101D9000411C0AD0A84208D206490144204601F05D
:101DA00000FA10B167742674DAE784F8118026749B
:101DB0000020D6E78051010070B504000AD02068E9
:101DC000416821F008014160FEF73CFE05464FF4F2
:101DD0007A7608E0012070BDFEF734FE401BB04269
:101DE00001D9032070BD206840680007F4D50020A9
:101DF00070BD4FF0E0210428086903D020F00400F2
:101E00000861704740F00400FAE7704710B5401EC3
:101E1000B0F1807F01D3012010BD4FF0E02460615C
:101E20000F21601701F002F80020A0610720206157
:101E3000002010BD10B5FFF7E8FF10BD70477047D8
:101E400030B590F83C20012A20D0012280F83C20B7
:101E5000022380F83D3003685C6824F070045C6005
:101E600003685C680D682C435C6003689C6824F020
:101E700080049C6003689C6849680C439C6080F8FF
:101E80003D20002180F83C10084630BD022030BDC6
:101E900010B5040003D094F83D0010B107E0012014
:101EA00010BD002084F83C00204600F00DF8022010
:101EB00084F83D00211D206801F0DEFB012084F83C
:101EC0003D00002010BD000008B500680B498842A5
:101ED00012D10B48C16941F00401C161C0690A22F5
:101EE00000F0040000900E211E20FFF715FABDE857
:101EF00008401E20FFF704BA08BD0000000800409B
:101F000000100240022180F83D1001680A6842F08A
:101F100001020A60012180F83D100020704701682D
:101F2000CA6842F00102CA600068016841F001011C
:101F30000160002070477047704770B50446006824
:101F400001694FF00005C943890715D4C168C94329
:101F5000890711D4E91E016101202077206880697A
:101F60008007204602D0FFF7E7FF04E000F0AAF860
:101F7000204600F065F9257720680169C9434907C3
:101F800017D4C168C943490713D46FF00401016134
:101F9000022020772068806910F4407F204602D01C
:101FA000FFF7CAFF04E000F08DF8204600F048F982
:101FB000257720680169C943090716D4C168C94358
:101FC000090712D46FF0080101610420207720680E
:101FD000C0698007204602D0FFF7AEFF04E000F0A2
:101FE00071F8204600F02CF9257720680169C94373
:101FF000C90617D4C168C943C90613D46FF01001CC
:102000000161082020772068C06910F4407F2046D5
:1020100002D0FFF791FF04E000F054F8204600F0F2
:102020000FF9257720680169C943C90708D1C1683C
:10203000C943C90704D1891E0161204600F074F923
:1020400020680169C943090609D4C168C943090662
:1020500005D46FF0800101612046FFF7EFFE206894
:102060000169C943490609D4C168C943490605D471
:102070006FF040010161204600F078F920680169A5
:10208000C94389060BD4C168C943890607D46FF0D8
:10209000200101612046BDE87040FFF7D0BE70BD51
:1020A0001FB50068B0F1804F08D102200090019068
:1020B0000320039069460248FEF7D8FB1FBD0000CD
:1020C00000080140704770B5044690F83C000D468A
:1020D00001280DD0012684F83C60022084F83D00E0
:1020E00042B1042A18D0082A2AD00C2A4DD139E04E
:1020F000022070BD206801F031FB2068816941F049
:10210000080181612068816921F0040181612068F2
:1021100081692A69114311E0206801F047FB2068BA
:10212000816941F4006181612068816921F48061E5
:102130008161206881692A6941EA0221816124E084
:10214000206801F05FFB2068C16941F00801C161AE
:102150002068C16921F00401C1612068C1692A6950
:10216000114311E0206801F079FB2068C16941F456
:102170000061C1612068C16921F48061C16120688A
:10218000C1692A6941EA0221C16184F83D600020E9
:1021900084F83C0070BD10B5040003D094F83D00F5
:1021A00010B107E0012010BD002084F83C0020465B
:1021B00000F00CF8022084F83D00211D206801F099
:1021C0005BFA012084F83D00002010BD38B50546BB
:1021D0000068B0F1804F24D11248C16941F001017B
:1021E000C161C069114C00F0010000900E482060F0
:1021F0001020606000208021C4E902014900C4E988
:1022000004102020A0614FF44050E0612046FEF70A
:10221000A3FA18B1912106A001F0F5FCAC622C6381
:10222000656238BD00100240800002404C0600206C
:102230002E2E2F5372632F74696D2E6300000000E1
:102240007047000070B5044690F83D0016460D46F4
:10225000022805D094F83D00012805D10EB903B13C
:1022600070BD022084F83D002C482D4935B1042D65
:1022700013D0082D34D00C2D1ED140E0626A90623C
:10228000606A0163226831463432606AFEF796FA6A
:102290002068C16841F400710DE0A26A9062A06AF2
:1022A0000163226831463832A06AFEF787FA206857
:1022B000C16841F48061C16001222946206801F0B3
:1022C00011FA18492068884203D1416C41F4004159
:1022D00041642068016841F001010160002070BD87
:1022E000E26A9062E06A0163226831463C32E06A49
:1022F000FEF764FA2068C16841F40061DBE7226BF5
:102300009062206B0163226831464032206BFEF7F9
:1023100055FA2068C16841F48051CCE7FB360008CB
:1023200039370008002C0140704770B5044690F81A
:102330003C00012818D0012584F83C50022084F884
:102340003D00204601F0ACFA2068C16821F0400150
:10235000C1602068C16821F48041C16084F83D50AB
:10236000002084F83C0070BD022070BD70477047AB
:1023700070B5026804461068D168536910F00F0FF9
:1023800050D003F0010501F4907635435DD0C207CB
:1023900005D0CA0503D5E26B42F00102E2634207B1
:1023A00005D5DA0703D0E26B42F00202E26382074E
:1023B00005D5DA0703D0E26B42F00402E2630207BC
:1023C00005D5DA0703D0E26B42F00802E263E26B64
:1023D000002A33D0800604D5880602D5204601F0B5
:1023E000D6FA20684069E16BC0F38010090700D479
:1023F00028B3204601F0BDFA2068416949061AD584
:10240000416921F040014161606BA0B11B4941630A
:10241000606BFEF7ABF8002810D0606B416BBDE835
:1024200070400847830610D58B060ED52046BDE8C0
:10243000704001F0ACBA2046FFF799FF70BD20460E
:10244000FFF795FF0020E06370BD030606D50B067D
:1024500004D52046BDE8704001F09CBB4006F3D592
:102460004806F1D5D168204621F04001D1602021F5
:1024700084F8391000F06BF870BD00006339000873
:1024800070B5040004D094F83900002510B106E0BE
:10249000012070BD84F83850204600F023F8242035
:1024A00084F839002068C16821F40051C1602046D9
:1024B00001F0B8FA2068016921F4904101612068B7
:1024C000416921F02A0141612068C16841F400514D
:1024D000C160E563202084F8390084F83A000020C8
:1024E00070BD000010B50068154986B0884225D13E
:1024F0001448816941F4804181618069124C00F483
:10250000804004904FF4007000900220019003205E
:10251000039069462046FEF7A9F900212015CDE970
:102520000001029169462046FEF7A0F900221146FB
:102530002520FEF7F1FE2520FEF7E2FE06B010BDD5
:102540000038014000100240000801407047704709
:10255000FEE710B5406A01680A6822F480620A60EA
:1025600000214185202280F83D2080F83E10016C3A
:1025700041F010010164FEF76BFA10BD10B5014681
:10258000406A90F83D3090F83E40496A0022212B85
:1025900009681CD0222B01D1202C18D00B6823F401
:1025A00080630B6001680B6843F400730B60016883
:1025B0004B6823F480534B6001684B6823F400633D
:1025C0004B604285016C69B1FEF742FA10BD4B6861
:1025D00023F400634B6042850068416841F4407118
:1025E000416010BD202180F83D1090F83E1080F829
:1025F0003E20402902D0FEF7CFFA10BDFEF772FC54
:1026000010BD01684A69D24352050CD46FF4806250
:102610004A6104210164002140F8301F20224273E6
:10262000017301207047002070472DE9F84F0446E0
:10263000C06A1E4692460D4621680A6842F48062CE
:102640000A60042807D0012805D010F5803F02D089
:10265000206B112804D12068016841F48071016069
:102660004FF001185346002241462046009600F0E4
:102670000CF9B8BB206908F10109B0F5804F12D000
:102680000620216800EAD51747F0F00008613346BC
:10269000524608F10701204600F028F938B1206CB5
:1026A00004282FD01EE0E8B240F001001FE02168AE
:1026B000E8B20861334652464946204600F016F912
:1026C0000028ECD12068416981690091016841F4DA
:1026D000807101605346002241462046009600F07A
:1026E000D4F810B10320BDE8F88F47F0F10021685D
:1026F0000861334652464946204600F0F7F8002864
:10270000CDD1F0E70120EEE7F8B50446C06A1E46D9
:102710000D461746042807D0012805D010F5803F44
:1027200002D0206B122804D12068016841F4807126
:102730000160134600224FF001112046009600F080
:10274000A4F8A0B92069B0F5804F12D00620216806
:1027500000EAD51040F0F000086133463A460E49D1
:10276000204600F0C3F838B1206C042811D00320B3
:10277000F8BD05F0FE0000E0E8B2216808610649F6
:1027800033463A46891F204600F0B0F80028EBD1C6
:10279000F8BD0120F8BD0000080001002DE9F84354
:1027A000044600680D46DDE908970168984616461C
:1027B00041F4807101604B4600224FF00111204628
:1027C000009700F062F8E8B9216805F0FE000861A2
:1027D0003B464A461849204600F088F828B1206C4C
:1027E00004280FD10120BDE8F88320684169806981
:1027F00000903A464946204600F0EDF820B1206CA2
:10280000042813D00320EEE7F5B2B8F1010F09D088
:102810002168300A08613A464946204600F0DBF854
:102820000028ECD1206805610020DCE72068016801
:1028300041F400710160D5E70200010070B5164651
:102840000D4604461AE02046FFF7DBFE08B10120E2
:1028500070BD681C12D025B1FEF7F4F8801BA842A9
:102860000CD954F8400F40F0200044F81009002023
:102870002060202161732073032070BD20684069AF
:10288000C0434007DFD4002070BD2DE9F0471E464D
:1028900090460D460446C1F30747DDF8209012E04C
:1028A000701C10D02EB1FEF7CDF8A0EB0900B0429D
:1028B00009D9002044F8300F20216173A0732073E0
:1028C0000320BDE8F0872068012F0AD0806925EA3F
:1028D00000000004000C06D000214145E0D000209B
:1028E000EFE74069F3E70121F7E700002DE9F04742
:1028F0009A4691460D46044600264FF02008C1F343
:1029000007472AE020684069C043400512D4206888
:10291000016841F40071016021686FF480604861D2
:1029200004202064266384F83D8084F83C60012004
:10293000BDE8F087B9F1FF3F0FD0B9F1000F05D026
:10294000FEF780F8A0EB0A01494506D944F8306F3C
:1029500084F80D8026730320EAE72068012F07D052
:10296000D0F8180025EA00000004000CE0D0C9E708
:102970004069F7E72DE9F041002590460E460446F0
:10298000202721E04069C043C0060CD421686FF0C5
:10299000100048612564256384F83D7084F83C503C
:1029A0000120BDE8F0812EB1FEF74CF8A0EB080045
:1029B000B04209D954F8400F40F0200044F804090F
:1029C000677025700320ECE720684169C943490618
:1029D000D8D40020E5E770B516460D4604461AE047
:1029E0002046FFF70EFE08B1012070BD681C12D012
:1029F00025B1FEF727F8801BA8420CD954F8400FE8
:102A000040F0200044F8100900202060202161736C
:102A10002073032070BD20684069C0430006DFD4E6
:102A2000002070BD0D49CA68D207FCD1CA68930660
:102A30004FF0200200D5CA600B6943F002030B611E
:102A40004861086940F040000861C8688006FCD50C
:102A5000CA60086920F00200086170470020024047
:102A600070B5104BDC68E407FCD1DC684FF0200542
:102A7000A40600D5DD601C6944F001041C6100243B
:102A800009E000BF30F8146021F81460DE68B60673
:102A9000FCD5DD60641C9442F4D3186920F0010079
:102AA000186170BD002002400D4808B5416941F031
:102AB000010141614069002200F0010000901146CF
:102AC0001020FEF729FC1020FEF71AFC0022052139
:102AD0001120FEF721FCBDE808401120FEF710BCD4
:102AE000001002402DE9F041304886B0816941F084
:102AF00010018161816901F010010491816941F047
:102B000020018161816901F020010491816941F016
:102B100004018161816901F004010491816941F03E
:102B2000080181618069224F00F008004FF40054D1
:102B30000490002221463846FDF77FFFDFF87480BD
:102B4000002261114046FDF778FF0022A1104046A7
:102B5000FDF773FF002261104046FDF76EFF009401
:102B600001AA01240025022682E870006946384641
:102B7000FDF77CFEE02000900F48CDE90104694696
:102B80004046FDF773FE4FF4C8508DE8710069466A
:102B90004046FDF76BFE0E2211461720FEF7BCFBE8
:102BA0001720FEF7ADFB06B0BDE8F0810010024033
:102BB0000010014000080140000021100E4810B52F
:102BC0000C4901600D49416000214FF48042816051
:102BD000C0E9031241618161C1610162FDF73CFFFF
:102BE000002805D0BDE81040452105A001F00BB834
:102BF00010BD000000540040CC040020C05701006C
:102C00002E2E2F5372632F6932632E630000000053
:102C10000E4810B50C4901600D49416000214FF488
:102C200080428160C0E9031241618161C16101623A
:102C3000FDF712FF002805D0BDE81040582105A07F
:102C400000F0E1BF10BD000000580040200500204A
:102C5000C05701002E2E2F5372632F6932632E63EB
:102C6000000000001CB51B481949002401604FF00A
:102C7000FF31C0E90114FEF77DFF18B13E2116A017
:102C800000F0C1FF8DF804408DF805408DF8064036
:102C9000012201A90F48FFF739F818B14C210EA005
:102CA00000F0B1FF01208DF800008DF801008DF8D3
:102CB000020002468DF8034069460648FEF7C4FF4D
:102CC000002803D0592104A000F09DFF1CBD000086
:102CD00000280040B80500202E2E2F5372632F725B
:102CE00074632E630000000010B519488AB04FF0DD
:102CF0008041016003210024C0E901141821C0E9CA
:102D000003148461FFF747FA18B1432111A000F0C2
:102D10007AFF079407A90E480894FFF791F818B1B5
:102D20004A210CA000F06FFF6020CDE9000402945E
:102D30000422694606480494FFF7C5F918B15321E7
:102D400004A000F060FF0248FFF7AAF90AB010BD26
:102D5000CC0500202E2E2F5372632F74696D2E63C5
:102D60000000000010B5184888B01649016048F608
:102D7000A0410024C0E901144FF4C871C0E9031454
:102D80008461FFF785F818B1672110A000F03BFFC0
:102D9000009469460C480194FFF7C7FA18B16E21F8
:102DA0000AA000F030FF2020CDE9050405A906485F
:102DB000FFF746F8002803D0752104A000F023FF98
:102DC00008B010BD000800400C0600202E2E2F5326
:102DD00072632F74696D2E63000000000D4810B5FA
:102DE0000B4901604FF416514160002181600C22B3
:102DF000C160C0E904128161C161FFF741FB002895
:102E000005D0BDE81040422103A000F0FCBE10BD7B
:102E100000380140900600202E2E2F5372632F752C
:102E2000736172742E630000FEE770470907090E94
:102E3000002806DA00F00F0000F1E02080F8141DF1
:102E4000704700F1E02080F80014704740F2014123
:102E50000148FDF790B900001C07002010B5B02014
:102E600000F096F8002000F093F8BDE81040102024
:102E700000F08EB810B5AE2000F08AF8D52000F032
:102E800087F8802000F084F8A82000F081F83F2027
:102E900000F07EF8D32000F07BF8002000F078F8F6
:102EA000402000F075F88D2000F072F8142000F03A
:102EB0006FF8202000F06CF8002000F069F8A120E5
:102EC00000F066F8C82000F063F8DA2000F060F83F
:102ED000122000F05DF8812000F05AF80F2000F079
:102EE00057F8D92000F054F8F12000F051F8DB2019
:102EF00000F04EF8402000F04BF8A42000F048F815
:102F0000A62000F045F8AF2000F042F8BDE81040E0
:102F1000FFF79CBFC001064900F1800204E00B5C92
:102F2000DB430B54401C80B28242F8D8704700004B
:102F30001C07002010B5084A084C064B118800EB0E
:102F4000800020440B4404681C6000791871891DBE
:102F5000118010BD1C0700201C000020744E0008CA
:102F60001CB5FFF77BFF084890F83D102029FBD1E6
:102F700040F201410548CDE90001012340227821BA
:102F80000148FEF74FF81CBDCC0400201C070020B0
:102F900001B584B00121642204A88DE807000B4626
:102FA000002278210248FDF79FFF05B000BD000018
:102FB000CC040020C00101EB410100EB410010B541
:102FC0000549401C1446088002E0641CFFF7B2FF6C
:102FD00020780028F9D110BD1C000020704701099D
:102FE00001EB810100F00F0000EB4100C0B270471F
:102FF000002102E00A38C0B2491C0A28FAD20907A7
:1030000040EA116070472DE9F04104460025C07B7D
:10301000627BA37B42E0012A16D0032A14D0052A42
:1030200012D0072A10D0082A0ED00A2A0CD00C2A57
:103030000AD0042A10D0062A0ED0092A0CD00B2A56
:103040000AD0022A0DD028E01F2B0CD30C2A05D160
:1030500001221346401C20E01E2B04D30123521CE6
:103060001BE01C2B02D203F1010316E011D183B245
:103070009E0710D16426B3FBF6F706FB173636B968
:103080004FF4C876B3FBF6F706FB17331BB91D23C5
:1030900003E01D2B01D1032201236D1C8D42BAD305
:1030A000D1B2E0736173DAB2A27300F04FF820730B
:1030B000BDE8F08170B50446FDF7C4FC05464FF449
:1030C0007A7606E0FDF7BEFC401BB04201D9032032
:1030D00070BD206840688006F4D52068416841F0E2
:1030E00010014160002070BD70B504460068416861
:1030F00021F010014160FDF7A5FC05464FF47A76FA
:1031000007E000BFFDF79EFC401BB04201D9032041
:1031100070BD206840688006F4D5002070BD01684D
:10312000086A496A89B241EA0040704700688169CB
:103130008AB2C1698BB2816989B28A4203D0C069FF
:1031400061F31F40704743EA02407047F0B56424C2
:10315000C1EBC1030927A500072603EB01130329CF
:10316000B3FBF7F100F5FA60114401440AD2401EA6
:10317000B0FBF4F201EB9001B0FBF5F0891A0844C2
:10318000001D08E0B0FBF4F201EB9001B0FBF5F09C
:10319000891A0844801CB0FBF6F106FB1100C0B28E
:1031A000F0BD70B50D4606460024FFF783FF48B911
:1031B0003168280C08623168A8B248623046FFF7CF
:1031C00093FF00B10124204670BD70B50D46064640
:1031D0000024FFF76FFF48B93168280C8861316817
:1031E000A8B2C8613046FFF77FFF00B10124204636
:1031F00070BD704710B5FEF701F8BDE81040FEF74E
:1032000019BE70B594B00124052000250090CDE9C9
:1032100002544FF48030019002260494CDE90760F7
:103220004FF4E01009906846FEF78EFA00B1FEE711
:103230000F20CDE90A064FF48060CDE90C50022141
:103240000AA80E95FEF77AF900B1FEE74FF48070F8
:10325000CDE90F400FA8FEF7FBF800B1FEE7FEF73F
:1032600017FA4FF47A71B0FBF1F0FEF7CFFD0420AE
:10327000FEF7BFFD00221146501EFEF74DF814B0B8
:1032800070BD00000D48016841F001010160416816
:103290000B4A1140416001680A4A1140016001680F
:1032A00021F480210160416821F4FE0141604FF466
:1032B0001F0181600449C00308607047001002408C
:1032C0000000FFF8FFFFF6FE08ED00E02DE9FE4FDD
:1032D000002201A9CA48FEF7E0FB002202A9C84863
:1032E000FEF7B4FB00F06CFF80893C24B0FBF4F0E7
:1032F0009DF80410C34D4FF0010B88420CD100F033
:103300005FFF8089B0FBF4F104FB11009DF805100C
:10331000884201D185F800B000F052FFC089B0FBAF
:10332000F4F19DF8040081420CD100F049FFC089FE
:10333000B0FBF4F104FB11009DF80510884201D1A7
:103340000220287000F03CFF408A9DF80410B0FB7A
:10335000F4F0DFF8B49200264FF40067884210D1F1
:1033600000F02EFF408AB0FBF4F104FB11009DF841
:103370000510884205D12E70012239464846FDF7D6
:103380005CFB00F01DFF008A9DF80410B0FBF4F018
:10339000884211D100F014FF008AB0FBF4F104FB65
:1033A00011009DF80510884206D1082028700022DF
:1033B00039464846FDF741FB00F002FFC08A9DF800
:1033C0000410B0FBF4F04FF4805588420FD100F0A8
:1033D000F7FEC08AB0FBF4F104FB11009DF8051064
:1033E000884204D1012229464846FDF726FB00F019
:1033F000E7FE818AA046B1FBF8F09DF804108842F0
:103400000FD100F0DDFE828AB2FBF8F108FB11203B
:103410009DF80510884204D1002229464846FDF750
:103420000CFB7A48FEF789FDDFF8E4A1AAF102045B
:103430009AF800109AF801209AF80200114301430B
:1034400002D03220607001E06078D0B3AF20FFF787
:103450009FFD6178A146491E61704FF400516D488F
:10346000FDF7E7FAFFF7F2FC9DF8060000909DF8E3
:1034700005309DF8042068A16B4800F0C5FB0021D1
:10348000694A0846FFF796FD9DF80B009DF8093044
:1034900000F5FA6000909DF80A2064A1624800F0EF
:1034A000B3FB614A0B210020FFF784FD634C64A24B
:1034B00000212068406945690520FFF77BFD002752
:1034C00005E0FFE7AE20FFF763FDBDE8FE8F206853
:1034D000007C012801D0022802D1284601F03EF8E4
:1034E000287C012805D16B8C2A4656A14E4800F055
:1034F0008BFB287C02281BD1688CB0F5B46F0CD2F2
:103500004146B0FBF1F2B0FBF8F308FB1202009267
:103510002A464FA1444800F077FB688CA0F5B460C0
:103520003C2805D24EA32A464EA13F4800F06CFB32
:10353000287C08B1032804D12A464DA13A4800F05E
:1035400063FBF81CC0B2384A0121FFF733FDAD69B7
:103550007F1C062FBBDB99F800004F4610B10520F9
:10356000FFF7D8FCFFF7FCFC9AF800009AF801205E
:103570009AF8021040EA020355460B43A5D03B7867
:1035800043B368B12068408C401E80B201F0F4F86B
:103590002068007C012801D0022801D101F058F8F0
:1035A000687868B12068408C401C80B201F0E4F873
:1035B0002068007C012801D0022801D101F048F8E0
:1035C000A878C8B12068007C032801D101F040F838
:1035D0003E7011E018B12068406900B120601AB156
:1035E0002068806900B1206031B12068C06908B1ED
:1035F000206001E087F800B02E706E70AE7064E756
:10360000B805002000000020000801400C06002042
:1036100003000020001001402532643A2530326456
:103620003A25303264000000D00600202532642D97
:10363000253032642D253464000000002000002075
:103640003E000000252D3135732535640000000053
:10365000252D3135732532643A253032640000005F
:103660004F464600252D3135732535730000000087
:10367000252D313573000000F0B50268164B174C4C
:10368000174D4FF08047984205D0B84203D0A04272
:1036900001D0A84203D122F070064A683243984212
:1036A00005D0B84203D0A04201D0A84203D122F4F1
:1036B0004074CA68224322F080044A6922430260AF
:1036C0008A68C2620A688262984201D1096901630C
:1036D00001214161F0BD0000002C014000040040C8
:1036E0000008004010B50123046A8B409C4304622B
:1036F000036A8A401343036210BD10B5446A012176
:1037000084F83D10626A824201D121770EE0A16AFD
:10371000814201D1022008E0E16A814201D1042006
:1037200003E0216B814201D1082020772046FEF77B
:1037300087FD0020207710BD10B5406A012180F878
:103740003D10FEF7F8FB10BD10B5846842EA032275
:1037500024F47F440A432243826010BD30B5026ADC
:1037600022F001020262026A4368846924F0730550
:103770000C682C4322F002058A682A430A4DA842AD
:103780000BD122F00805CA6823F440732A434D691F
:1037900022F004021D438B692B4343608461496816
:1037A0004163026230BD0000002C014030B5026A66
:1037B00022F010020262026A436884690D6824F4F0
:1037C000E64444EA05248D6822F0200242EA05120C
:1037D0000B4DA8420ED1CD6822F0800242EA0512BC
:1037E0004D6923F4406343EA85038D6922F040026A
:1037F00043EA85034360846149688163026230BDA6
:10380000002C014030B5026A22F480720262036A21
:103810004268C46923F4007324F073050C682C43D8
:103820008D6843EA05230C4DA8420ED1CD6823F4E0
:10383000006343EA05234D6922F4405242EA05122F
:103840008D6923F4806342EA05124260C4614968CD
:10385000C163036230BD0000002C014030B5026A34
:1038600022F480520262046A4268C3690D6823F43C
:10387000E64343EA05238D6824F4005444EA053402
:10388000064DA84204D14D6922F4804242EA8512D5
:103890004260C36149680164046230BD002C01408C
:1038A00030B403689A6822F070044A68224322F018
:1038B00007040A6822439A604A6812F00F0F1FD16A
:1038C0001211082A1CD2DFE802F01B1B1B1B0B1D68
:1038D00023040B69D1E90221006830BCFFF734BF33
:1038E0000268136A146A24F001041462026894697D
:1038F000096924F0F00444EA01119161006803624F
:1039000030BC70470A698968006830BC00F006B8AE
:103910000A698968006830BC00F011B810B5036A04
:10392000046A24F001040462846924F0F00444EA87
:10393000021423F00A020A438461026210BD10B52A
:10394000036A23F0100303628369046A23F470435B
:1039500043EA023224F0A00343EA011182610162CA
:1039600010BD10B5406A0021C185C184FEF7FFFC7F
:1039700010BD0168CA6822F49072CA6001684A6981
:1039800022F001024A61202180F83A10704710B5F8
:1039900090F83A10222901D0022010BD8168B1F5BB
:1039A000805F11D00169002901681FD0496801F0CA
:1039B0007F03816A4A1C82620B70C18D491E090413
:1039C000090CC18518D02BE00269816A002A0268BF
:1039D000526805D0D2B20A80816A491C8162ECE744
:1039E000C2F308020A80816A891CF7E74A68816A83
:1039F0004B1C83620A70E0E70168CA6822F020026B
:103A0000CA600168CA6822F48072CA6001684A69A3
:103A100022F001024A61202180F83A10FEF796FD5B
:103A2000002010BD2DE9F041044600680169E268FC
:103A300021F44051114301612169A0680843616983
:103A400008432168CA6841F20C639A430243CA6082
:103A500020684169A26921F44071114341614C49D8
:103A600020686425322688423CD1FDF727FE00EB12
:103A7000C00101EB001061688900B0FBF1F7FDF7B0
:103A80001DFE00EBC00101EB00106168B04689002B
:103A9000B0FBF1F0B0FBF5F06FF01801484307EB15
:103AA000800106EB0110B0FBF5F000F0F006FDF729
:103AB00005FE00EBC00101EB001061688900B0FB5E
:103AC000F1F0B0FBF5F006EB0016FDF7F7FD00EBAB
:103AD000C00101EB001061688900B0FBF1F7FDF750
:103AE000EDFD3BE0FDF7DAFD00EBC00101EB00105E
:103AF00061688900B0FBF1F7FDF7D0FD00EBC00174
:103B000001EB00106168B0468900B0FBF1F0B0FB3A
:103B1000F5F06FF01801484307EB800106EB011048
:103B2000B0FBF5F000F0F006FDF7B8FD00EBC001CA
:103B300001EB001061688900B0FBF1F0B0FBF5F01B
:103B400006EB0016FDF7AAFD00EBC00101EB00102B
:103B500061688900B0FBF1F7FDF7A0FD00EBC00143
:103B600001EB001061688900B0FBF1F0B0FBF5F0EB
:103B70006FF01801484307EB800108EB0110B0FB20
:103B8000F5F0216800F00F0030448860BDE8F08156
:103B90000038014090F83910212901D002207047E7
:103BA0008168B1F5805F016A0BD04A1C026202682D
:103BB00009785160C18C491E0904090CC1840ED0DA
:103BC00017E009880268C1F3080151600169002902
:103BD000016A02D0491C0162ECE7891CFBE701681D
:103BE000CA6822F08002CA600068C16841F04001E2
:103BF000C1600020704700000148FEF7B9BB00001B
:103C000090060020FEE7FEE70FB4084B10B504A9AC
:103C100002AA039800F072F8044602A9002000F0FE
:103C20000EFA204610BC5DF814FB00003F4000086F
:103C300030B528B1144C031F002021680A4605E066
:103C4000084630BD9A4203D810465268002AF9D17E
:103C5000002800D041680BD00468A3EB0005A54202
:103C600004D11B681C440346046002E0436000E08A
:103C700023603AB11C68D51AA54203D115682C44BB
:103C80001C6052685A6030BDC40400202DE9F04722
:103C900082460F4C10480D4E0E4F001B4FF000088F
:103CA00020F007054FF0010900221146504600F0B0
:103CB0000BFB002802D1306810B10020BDE8F0876E
:103CC0003C60C4E90058C6F80090EDE7C804002045
:103CD000240B0020C40400202044002002E008C877
:103CE000121F08C1002AFAD170477047002001E076
:103CF00001C1121F002AFBD1704700002DE9FF4FC0
:103D00008BB088460546002606E025280BD0DDE965
:103D10000D1290476D1C761C28780028F5D10FB045
:103D20003046BDE8F08F0024A146A2460122AE49EC
:103D300000E0044315F8013F203B02FA03F008427B
:103D4000F7D128782A2810D06FF02F022878A0F118
:103D50003001092915D809EB890102EB410144F032
:103D6000020400EB01096D1CF0E758F8041B5FEA40
:103D7000010903D544F40054C9F1000944F00204D8
:103D80006D1C28782E2817D115F8010F44F0040473
:103D90002A280ED06FF02F022878A0F130010929CF
:103DA0000AD80AEB8A0102EB410100EB010A6D1C03
:103DB000F2E758F804AB6D1C28786C280FD006DCAD
:103DC0004C2817D068280DD06A2814D104E0742834
:103DD00010D07A280FD10DE044F400140AE044F426
:103DE000801401E044F440146978814202D104F562
:103DF00080146D1C6D1C2878692865D006DC0028AD
:103E00008DD0632827D0642806D15DE06E2808D0C5
:103E100073282AD0752877D0DDE90D129047761CDB
:103E2000E0E0C4F30250022809D003280DD0D8F8EE
:103E3000001004280DD00E6008F10408D2E0D8F874
:103E40000010F217C1E90062F6E7D8F800100E8002
:103E5000F2E70E70F0E718F8041B8DF80010002050
:103E60008DF80100EB46012003E058F804BB4FF049
:103E7000FF3061074FF0000701D40AE07F1C57456F
:103E80000DDA8742FADB1BF807100029F6D106E0AD
:103E90007F1C8742FCDB1BF807100029F8D1DDE905
:103EA0000D23A9EB07008146214600F0B1F830440C
:103EB000C61904E0DDE90D121BF8010B90477F1EC7
:103EC000F8D22146484688E058F8040BC4F3025162
:103ED0004FF00A0B032900D100B2042900D140B2EF
:103EE000002802DA40422D2102E0210505D52B21D0
:103EF0008DF82410012104E006E0E10710D0202114
:103F0000F6E708AF089113E058F8040BC4F3025128
:103F10004FF00A0B032900D180B2042900D1C0B2AE
:103F20000021EEE75946FCF7E1F9303107F8011DB1
:103F30000028F7D1ADEB070000F1200B600702D598
:103F400024F4803401E04FF0010ADA4502DDAAEBE7
:103F50000B0000E00020824600EB0B0108980144B2
:103F6000A9EB01000A90E00306D4DDE90D23214608
:103F70000A9800F04DF806444FF0000908E009A93E
:103F800011F80900DDE90D12904709F10109761CCD
:103F900008998945F3DBE0030CD5DDE90D232146C3
:103FA0000A9800F035F8064404E0DDE90D123020EF
:103FB0009047761CBAF10001AAF1010AF5DC05E090
:103FC000DDE90D1217F8010B9047761CBBF10001DB
:103FD000ABF1010BF4DC0A982146DDE90D2300F07A
:103FE00005F806446D1C97E6092801002DE9F0410B
:103FF000044600251E461746880404D405E03946C9
:104000002020B0476D1C641EF9D52846BDE8F0811C
:104010002DE9F041044600251E469046C80301D50F
:10402000302700E02027880404D505E041463846C3
:10403000B0476D1C641EF9D52846BDE8F0810A68BA
:10404000531C0B601070704770B50C4C05462078FF
:10405000401CC0B220708100606800F0CDFB606041
:1040600018B9572106A0FFF7CEFD21786FF00302A3
:10407000606802EB8101455070BD00001400002013
:104080002E2E5C5372635C6C6564436F6E74726F4A
:104090006C2E630010B5064C01202070A07800F053
:1040A0008DFC607800F07AFCBDE8104000F04EB85E
:1040B000AC04002070B5002104680A460125A35C09
:1040C000102B04D1C2F1170605FA06F31943521C4E
:1040D000182AF4DB0A0A82710A0CC271017270BDDF
:1040E0002DE9F04781460024164D22E0FCF72AF81E
:1040F000154EB168C98890FBF1F201FB120000F087
:10410000FF08FCF71FF8B168898890FBF1F201FB0A
:104110001200C7B2FCF716F8B1686E6943464988C9
:1041200090FBF1F201FB1200C1B2A0B23A46B047D7
:10413000641C2888A042D9DA4FF4FA71C9F800103B
:10414000BDE8F087040700200800002010B5012119
:10415000002000F075FE0A20FCF768FB0321BDE893
:104160001040002000F06CBE04490A784968B0FB9A
:10417000F2F302FB130051F82000704714000020F6
:104180003EB504460020019002900C4801EB410529
:10419000436803F1C8020092C822806802EBC5029E
:1041A000824206D898180090ADF804106846FFF7D0
:1041B00081FF9DE8070084E807003EBD040700205A
:1041C00000487047E806002070B52C4C411E218045
:1041D0002B49E1602B4921612B49616100EB4001D2
:1041E000C82000EBC1052846FFF750FDC4E90105D2
:1041F00018B9302125A0FFF706FD0020A26805466A
:10420000002A0CD9082126466268155403E0C82804
:10421000FADB62681154A268401C8242F7D800F0B1
:10422000AFF81F4988600021F62000F0E7FD1C4C24
:104230001C480C342570FFF707FF1B48FFF704FFED
:104240001A48FFF701FF1A48FFF7FEFE1948FFF76B
:10425000FBFE1948FFF7F8FE1848FFF7F5FE18486F
:10426000FFF7F2FE1748FFF7EFFE00F073F9217831
:10427000491EA0F80412014870BD00000407002088
:1042800081410008DD490008074A00082E2E5C53D2
:1042900072635C6C6564436F6E74726F6C2E630046
:1042A0000800002019430008314B0008454C000865
:1042B0003D4A0008E1400008B5480008654800088C
:1042C000E54A00081D4500082DE9F0410B3020F0BB
:1042D0000706104D19E02068B04215D3B0420AD944
:1042E000871B201DD4F80480FCF716F8A019C0E93C
:1042F0000078286004E060682860201DFCF70CF856
:10430000201D2660BDE8F081251D2C68002CE2D11F
:104310000020F7E7C40400202DE9FE438046002476
:10432000164D22E0EA68A1B2684690470198EA6813
:10433000C0F30747A1B2684690470198EA68060EA5
:10434000A1B2684690470298C3B20FB17F1EFFB278
:104350000EB1761EF6B20BB15B1EDBB2D5F814C0FF
:10436000A0B232463946E047641C2888A042D9DA18
:104370000A21C8F80010BDE8FE83000004070020F1
:1043800040483F4981614049B1F8001C01803E49E5
:10439000891CB1F8001C41803B49091DB1F8001C83
:1043A00081803949891DB1F8001CC1803649083126
:1043B000B1F8001C018134490A31B1F8001C418177
:1043C00031490C31B1F8001C81812F490E31B1F80F
:1043D000001CC1812C491031B1F8001C01822A490E
:1043E0001231B1F8001C418227491431B1F8001C88
:1043F000818225491631B1F8001CC18202884FF430
:1044000096718A4200D90A4602804288FF2A00D962
:10441000FF2242808288FF2A00D9FF228280C28840
:10442000FF2A00D9FF22C2800289FF2A00D9FF2279
:10443000028142898A4200D81146418182894FF423
:10444000B4618A4200D90A468281C2898A4200D96F
:104450000A46C281028A8A4200D90A460282428AF8
:104460008A4200D90A464282828A8A4200D90A4692
:104470008282C28A8A4200D81146C18201487047AE
:1044800011490008E806002000F0010808B5FCF713
:10449000BDFEFEF7B6FEFEF725FBFEF705FBFEF7B9
:1044A0008DFBFEF7B5FBFEF7DDFBFEF75BFCFEF7D1
:1044B0001BFCFEF793FCFFF763FF0088FFF784FE09
:1044C00004466420FCF7B2F9FEF7D4FCFEF7BEFC0C
:1044D000FEF746FD6420FCF7A9F92089042183B288
:1044E0000B486268FDF7AEFE0A48FDF70BFD094870
:1044F000FDF715FD0020084C00902078FFF734FEF2
:104500000146684688470098FCF790F9F5E70000F7
:10451000CC0500200C060020000000202DE9F04111
:1045200007460024094D0A4E08E0B068D5F814C0CB
:10453000837902798178A0B2E047641C2888A04280
:10454000F3DA4FF4FA703860BDE8F0810407002018
:1045500008000020004870472400002038B50446B9
:1045600090F8260015286ED2DFE800F06D0B1319C5
:104570001F272F373B3F43474B4F5255595D6165CE
:104580006900002269463048FDF760FA9DF8030093
:1045900058E0002269462C48FDF758FA12E0002244
:1045A00069462948FDF752FA14E000226946264878
:1045B000FDF773FA9DF8000044E0002269462248A6
:1045C000FDF76BFA9DF801003CE0002269461E48A9
:1045D000FDF763FA9DF8020034E0FFF7F1FD008873
:1045E00030E0FFF7EDFD40882CE0FFF7E9FD808823
:1045F00028E0FFF7E5FDC08824E0FFF7E1FD008932
:1046000020E0FFF7DDFD40891CE01048007819E04C
:1046100000F09AFB16E0FFF7D3FD808912E0FFF768
:10462000CFFDC0890EE0FFF7CBFD008A0AE0FFF75F
:10463000C7FD408A06E0FFF7C3FD808A02E0FFF76E
:10464000BFFDC08A608438BDB8050020000000208E
:1046500038B546480068448C90F82600162828D2C1
:10466000DFE800F0270B131B28303845494D515522
:10467000595D6065696D7175797D002269463C48B8
:10468000FDF7E4F98DF803400EE000226946384852
:10469000FDF7DCF98DF8014006E000226946344858
:1046A000FDF7D4F98DF80240002269463048FDF745
:1046B000CBFA38BD002269462D48FDF7EEF98DF89A
:1046C00000400EE0002269462948FDF7E6F98DF822
:1046D000014006E0002269462548FDF7DEF98DF825
:1046E0000240002269462248FDF710FB38BDFFF763
:1046F00067FD048038BDFFF763FD448038BDFFF7D8
:104700005FFD848038BDFFF75BFDC48038BDFFF7D7
:1047100057FD048138BDFFF753FD448138BD15486E
:10472000047038BDE0B2BDE8384000F06FBBFFF761
:1047300047FD848138BDFFF743FDC48138BDFFF7D5
:104740003FFD048238BDFFF73BFD448238BDFFF7D3
:1047500037FD848238BDFFF733FDC48238BDFFF7D3
:104760002FFD806901B0BDE83040004720000020E7
:10477000B805002000000020094910B509680B8C1D
:104780008A8C834207D8A0F57F44FF3C03D0824245
:1047900003D24B8410BD4A8410BD488410BD000074
:1047A0002000002033B583B00D461248FCF751F9C4
:1047B0002028FAD19DF80C004FF47A7440F0800064
:1047C0008DF80C00012303AA52210A480094FCF73B
:1047D000EDFA0848FCF73DF92028FAD1022301AA96
:1047E000522104480094FCF7D9F9BDF80400288050
:1047F00005B030BD200500202DE9F04704008A46B1
:1048000016D054F8047CD4F800903E1F564500D9C9
:1048100056462046FFF70CFA0546884632462146A2
:104820005046FFF751FD40B1C0F80090BDE8F08759
:10483000BDE8F0470846FFF729BA44E9017955B1C8
:1048400029686A18211F8A4202D9611B091F296041
:10485000C5F80480EAE7024AC2F80080E6E70000F3
:10486000C40400202DE9F041074600240F4D104EEE
:1048700013E0A888FF2800D9FF20C3B26888FF286A
:1048800000D9FF20C2B22888FF2800D9FF20C1B27A
:10489000D6F814C0A0B2E047641C3088A042E8DA21
:1048A0004FF4FA703860BDE8F08100000800002085
:1048B000040700202DE9F041134B07469A1E911E74
:1048C000881E00F05FFA104D0024AD1F0F4E13E05C
:1048D000A888FF2800D9FF20C3B26888FF2800D924
:1048E000FF20C2B22888FF2800D9FF20C1B2D6F825
:1048F00014C0A0B2E047641C3088A042E8DA4FF44C
:10490000FA703860BDE8F0810E0000200407002036
:1049100030B51D4886B01E4C0188ADF800104188A6
:10492000ADF802108188ADF80410C188ADF806100A
:104930000189ADF808104189ADF80A108189ADF8F8
:104940000C10C189ADF80E10018AADF81010418A23
:10495000ADF81210818AADF81410C08AADF81600B7
:104960000A4860600B4860600B4D2846FEF75AF815
:104970000C2229466846FEF773F8206940F0800053
:10498000206106B030BD0000E80600202301674525
:1049900000200240AB89EFCD00FC010870B5064D48
:1049A0000446287808B9FFF775FB21460F2000F070
:1049B00047FA6C7070BD0000AC04002070B5064D65
:1049C0000446287808B9FFF765FB2146012000F06E
:1049D00037FAAC7070BD0000AC0400201EB50C4668
:1049E00001466846FFF7CCFB4FF40001002021424E
:1049F00001D0102200E00822009B49081A54401CF4
:104A00001828F4DB1EBD7EB50E4601461C46154631
:104A10006846FFF7B5FB300240EA054222434FF4F7
:104A200000010020114201D0102300E00823009C67
:104A300049082354401C1828F4DB7EBD2DE9F14FB2
:104A40008AB0FBF77FFB254CA168498890FBF1F207
:104A500001FB120000F0FF0BFBF774FBA1688988D3
:104A600090FBF1F201FB120000F0FF0AFBF76AFB7A
:104A7000A16801241A4DC98890FBF1F201FB1200D4
:104A800000F0FF0919E0661EEA68B1B206A8904777
:104A9000EA68B1B2DDF8208003A89047EA68B1B2B5
:104AA000049F6846904701986E69C0F3074108F07B
:104AB000FF033A0EA0B2B047641C2888A042E2DA95
:104AC0006C694B46524659460020A0470A984FF45D
:104AD000FA7101600BB0BDE8F08F00000800002003
:104AE000040700202DE9F041074600240E4E0F4D2B
:104AF00012E0B0684189A14206D1837902798178B8
:104B0000A0B2D5F814C005E00023D5F814C0A0B2B7
:104B10001A461946E047641C2888A042E9DA4FF497
:104B2000FA703860BDE8F08108000020040700201A
:104B30002DE9F14F84B00024DFF8F8B0DFF8F890E9
:104B40006BE00746C268A1B2684690470198FA68D0
:104B5000C0F30745A1B2684690470198FA68060E6F
:104B6000A1B268469047029800F0FF0ADBF80800FF
:104B70004088A84201D96D1CEDB2FBF779FB2F4AA2
:104B80002F4BFBF703FB074688462846FBF770FBD5
:104B90003A464346CDE90001FBF790FB06D2DBF82D
:104BA00008008088B04201D9761CF6B2DBF8080014
:104BB0005F464088FBF75CFBDFF884801F4A434672
:104BC000FBF7E4FA02460B46DDE90001FBF776FB52
:104BD0001BD2B868BB468088FBF74AFB174A43469E
:104BE000FBF7D4FA074688463046FBF741FB3A46C6
:104BF0004346FBF763FB08D2DBF80800C188514548
:104C000003D90AF1010000F0FF0AD9F81470A0B22C
:104C1000534632462946B847641CB9F80010484646
:104C2000A1428EDA049841F27071016005B0BDE8CE
:104C3000F08F000008000020040700209A9999993D
:104C40009999E93F2DE9F14F84B00024DFF8E8A0FD
:104C5000DFF8E89064E00546C268A1B26846904774
:104C60000198EA68C0F3074BA1B2684690470198E3
:104C7000EA68060EA1B268469047029810F0FF0558
:104C800001D06D1EEDB2DAF80800C088FBF7F0FA2B
:104C90002B4A2C4BFBF77AFA074688462846FBF747
:104CA000E7FACDE900013A464346FBF7EFFA02D2B4
:104CB0000EB1761EF6B2DAF80800C088FBF7D8FA13
:104CC000DFF87C801F4F42463B46FBF75FFA024607
:104CD0000B46DDE90001FBF7D9FA19D2DAF8080032
:104CE000C088FBF7C5FA42463B46FBF74FFA07463A
:104CF00088463046FBF7BCFA3A464346FBF7C6FA0D
:104D000006D2BBF1000F03D0ABF1010000F0FF0BA6
:104D1000D9F81470A0B22B4632465946B847641CE5
:104D2000B9F800104846A14295DA049841F2707132
:104D3000016005B0BDE8F08F0800002004070020E6
:104D40009A9999999999C93F0D488078EB280ED086
:104D500005DC90B1C0280ED0D52804D109E0F62892
:104D600001D0FF2801D001207047002070470220A9
:104D700070470320704704207047052070470000EB
:104D8000AC0400202DE9F0411B4C07461D4620785D
:104D90001646884608B9FFF77DF929461420FFF723
:104DA00001FD39461620FFF7FDFC41461820FFF7AC
:104DB000F9FC31461A20FFF7F5FCA078EB280FD05C
:104DC00006DC88B1C0280DD0D52813D165200DE0B0
:104DD000F62803D0FF280DD1032007E0182005E0B6
:104DE000322003E09A2001E04FF42F70BDE8F0413B
:104DF000FBF71CBDBDE8F081AC040020024A002393
:104E00001370907051707047AC040020F6220B496B
:104E1000062806D2DFE800F00305070C0E10FF207D
:104E200002E08A7001E0EB2088708878FFF7C6BD49
:104E3000D520F9E7C020F7E70020F5E7AC04002013
:104E40007CB50C4605460A48FBF703FE2028FAD13C
:104E500045F080008DF804004FF47A7000908DF8D2
:104E60000540022301AA52210148FBF79FFF7CBDA8
:104E700020050020FFFFFFFFFFFFFFFFFFFFFFFFF9
:104E8000FFFFFFFFFFFFFFFFFFFFFFFFFFFFFFFF32
:104E9000FFFFFFFFFFFFFFFFFFFFFFFFFFFFFFFF22
:104EA000FFFFFFFFFFFFFFFFFFFFFFFFFFFFFFFF12
:104EB000FFFFFFFFFFFFFFFFFFFFFFFFFFFFFFFF02
:104EC000FFFFFFFFFFFFFFFFFFFFFFFFFFFFFFFFF2
:104ED000FFFFFFFFFFFFFFFFFFFFFFFFFFFFFFFFE2
:104EE000FFFFFFFFFFFFFFFFFFFFFFFFFFFFFFFFD2
:104EF000FFFFFFFFFFFFFFFFFFFFFFFFFFFFFFFFC2
:104F0000FFFFFFFFFFFFFFFFFFFFFFFFFFFFFFFFB1
:104F1000FFFFFFFF000000000000005F000000072F
:104F2000000700147F147F14242A7F2A12231308F9
:104F3000646236495522500005030000001C2241DE
:104F4000000041221C0014083E081408083E08080E
:104F500000503000000808080808006060000020C9
:104F6000100804023E5149453E00427F4000426124
:104F70005149462141454B311814127F10274545B0
:104F800045393C4A494930017109050336494949C7
:104F900036064949291E0036360000005636000004
:104FA000081422410014141414140041221408029D
:104FB00001510906324979413E7E1111117E7F4926
:104FC0004949363E414141227F4141221C7F4949A6
:104FD00049417F090909013E4149497A7F0808088A
:104FE0007F00417F41002040413F017F0814224162
:104FF0007F404040407F020C027F7F0408107F3ECC
:105000004141413E7F090909063E4151215E7F0928
:10501000192946464949493101017F01013F404074
:10502000403F1F2040201F3F4038403F631408147A
:105030006307087008076151494543007F414100FB
:1050400002040810200041417F00040201020440D4
:1050500040404040000102040020545454787F48EE
:105060004444383844444420384444487F385454F5
:105070005418087E0901020C5252523E7F08040463
:105080007800447D40002040443D007F10284400CB
:1050900000417F40007C041804787C0804047838C0
:1050A000444444387C14141408081414187C7C08F4
:1050B0000404080854545420043F4440203C404019
:1050C000207C1C2040201C3C4030403C44281028C0
:1050D000440C5050503C4464544C44000836410049
:1050E00000007F0000004136080010080810087812
:1050F00046414678FFFFFFFFFFFFFFFFFFFFFFFF77
:10510000FFFFFFFFFFFFFFFFFFFFFFFFFFFFFFFFAF
:10511000FFFFFFFFFFFFFFFFFFFFFFFFFFFFFFFF9F
:10512000FFFFFFFFFFFFFFFFFFFFFFFFFFFFFFFF8F
:10513000FFFFFFFFFFFFFFFFFFFFFFFFFFFFFFFF7F
:10514000FFFFFFFFFFFFFFFFFFFFFFFFFFFFFFFF6F
:10515000FFFFFFFFFFFFFFFFFFFFFFFFFFFFFFFF5F
:10516000FFFFFFFFFFFFFFFFFFFFFFFFFFFFFFFF4F
:10517000FFFFFFFFFFFFFFFFFFFFFFFFFFFFFFFF3F
:10518000FFFFFFFFFFFFFFFFFFFFFFFFFFFFFFFF2F
:10519000FFFFFFFFFFFFFFFFFFFFFFFFFFFFFFFF1F
:1051A000FFFFFFFFFFFFFFFFFFFFFFFFFFFFFFFF0F
:1051B000FFFFFFFFFFFFFFFFFFFFFFFFFFFFFFFFFF
:1051C000FFFFFFFFFFFFFFFFFFFFFFFFFFFFFFFFEF
:1051D000FFFFFFFFFFFFFFFFFFFFFFFFFFFFFFFFDF
:1051E000FFFFFFFFFFFFFFFFFFFFFFFFFFFFFFFFCF
:1051F000FFFFFFFFFFFFFFFFFFFFFFFFFFFFFFFFBF
:10520000FFFFFFFFFFFFFFFFFFFFFFFFFFFFFFFFAE
:10521000FFFFFFFFFFFFFFFFFFFFFFFFFFFFFFFF9E
:10522000FFFFFFFFFFFFFFFFFFFFFFFFFFFFFFFF8E
:10523000FFFFFFFF7E1111117E7F494949317F49F0
:105240004949367F01010103603E21217F7F4949A1
:10525000494177087F087722414949367F10080481
:105260007F7F1009047F7F08142241403E01017FA7
:105270007F020C027F7F0808087F3E4141413E7F4C
:105280000101017F7F090909063E414141220101D7
:105290007F0101274848483F1E217F211E631408D3
:1052A00014633F20203F60070808087F7F407F404D
:1052B0007F3F203F207F017F4848307F4830007F7C
:1052C000007F484830224149493E7F083E413E46E2
:1052D0002919097F20545454783C4A4A4A307C5456
:1052E0005428007C04040404603824247C3854547A
:1052F00054186C107C106C00445454287C20100806
:105300007C7C2112097C7C10284400403804047CF9
:105310007C0810087C7C1010107C38444444387C95
:105320000404047C7C141414083844444400040429
:105330007C04040C5050503C08147C140844281081
:1053400028443C20203C600C1010107C7C407C40A9
:105350007C3C203C207C047C5050207C5020007CF5
:10536000007C50502028445454387C10384438482D
:105370005434147C0000000000000000010203040B
:10538000060708090000000001020304AC530008EE
:1053900000000020CC0400003A0400089C550008DE
:1053A000CC04002054480000EC3C000821021D32CF
:1053B0002224061020C4E0F2E01A9C182A4C1C1982
:1053C00004810E11C2F0E5ECFF401A74048B6401F5
:1053D00028FCCBE5ED51294C29548B040228D00838
:1053E000D2E0E9ECE5F0FB294C29548B940328D456
:1053F000C3EEE432011A3C709AEC9C1A6316DECCC0
:10540000E5F1FFF62829C05A149C1A0102120C1269
:1054100002EDC4E5EDFC50294C29546928121F12F5
:105420000303123C3C294C295429A481FCD7E0F108
:10543000A01ADC285A8C504112171204CFCCE8ED88
:10544000F3F2E0281A64249AB428123B12058FD193
:10545000E5EAF3EDE4292928294C295489280A137F
:1054600006A0294C2954A9A078084E20DDF4F4E5C3
:10547000EA7B2950136C038C202C02241232120D6B
:10548000580ECAEEEB2DE2EE20F1E2E5F2EEE42852
:105490001A04249A5428142C0107B808CAF0E0F121
:1054A000EDFBE9A0294C9A7C2812FF1208EDC7E514
:1054B000EBE528294CBAA42812098DD1E8EDE8269D
:1054C0004928294CBACC28120AB808DFF0EAEEF1D4
:1054D000F2FC28294CBAF4286A0BC84808E2F1EF1C
:1054E000FBF8EAE828294C1A1CF489C8120C580E5B
:1054F00052474220E2F0E5ECFF20EEEFF050294C5D
:105500007A442812011205120E7808D1EEF5F0E067
:10551000EDE87A3203294C9A6C5021121503123CA3
:105520003C294C1A04542224792C700AD0E0F1F161
:10553000E2E5F220F732021384049B20BC5014A051
:10554000050F8DC7E0EAE02649281A9424BAE4281A
:105550001210A809D0E5EBE520302E3028294C1A8E
:105560000C5489286A1128AA3128294CBA34284AAF
:105570001228CA3150294CBA5C286A1328B950291C
:105580004C29CC8928121403123C3C294C29CC22EA
:0C55900024792C4132018210C4A24A048C
:04000005080000ED02
:00000001FF
